:100000000C9496040C94BE040C94BE040C94BE0490
:100010000C94BE040C94BE040C94BE040C94BE0458
:100020000C94BE040C94BE040C94BE040C94BE0448
:100030000C94BE040C94BE040C94BE040C94BE0438
:100040000C94D9120C94BE040C9449130C942313F1
:100050000C94BE040C94BE040C94BE040C94BE0418
:100060000C94BE040C94BE0405A84CCDB2D44EB979
:100070003836A9020C50B9918688083CA6AAAA2A4B
:10008000BE000000803F00000000003E5B4F5B3E72
:100090003E6B4F6B3E1C3E7C3E1C183C7E3C181C4D
:1000A000577D571C1C5E7F5E1C00183C1800FFE744
:1000B000C3E7FF0018241800FFE7DBE7FF30483AEA
:1000C000060E2629792926407F050507407F05254C
:1000D0003F5A3CE73C5A7F3E1C1C08081C1C3E7FD4
:1000E00014227F22145F5F005F5F06097F017F009B
:1000F0006689956A606060606094A2FFA2940804BB
:100100007E040810207E201008082A1C08081C2ADB
:1001100008081E101010100C1E0C1E0C30383E3833
:1001200030060E3E0E06000000000000005F0000DA
:100130000007000700147F147F14242A7F2A12234B
:100140001308646236495620500008070300001C5B
:100150002241000041221C002A1C7F1C2A08083E64
:100160000808008070300008080808080000606077
:100170000020100804023E5149453E00427F4000E5
:1001800072494949462141494D331814127F1027BD
:10019000454545393C4A494931412111090736490C
:1001A000494936464949291E0000140000004034E0
:1001B00000000008142241141414141400412214E5
:1001C0000802015909063E415D594E7C1211127C0C
:1001D0007F494949363E414141227F4141413E7F6D
:1001E000494949417F090909013E414151737F084D
:1001F00008087F00417F41002040413F017F0814F3
:1002000022417F404040407F021C027F7F04081053
:100210007F3E4141413E7F090909063E4151215E31
:100220007F09192946264949493203017F01033FC5
:100230004040403F1F2040201F3F4038403F631454
:1002400008146303047804036159494D43007F4156
:1002500041410204081020004141417F0402010293
:1002600004404040404000030708002054547840B8
:100270007F284444383844444428384444287F384C
:100280005454541800087E090218A4A49C787F08CE
:1002900004047800447D40002040403D007F102849
:1002A000440000417F40007C047804787C0804040A
:1002B000783844444438FC1824241818242418FCA2
:1002C0007C08040408485454542404043F44243C47
:1002D0004040207C1C2040201C3C4030403C4428B6
:1002E0001028444C9090907C4464544C4400083650
:1002F00041000000770000004136080002010204BE
:10030000023C2623263C1EA1A161123A4040207ADD
:100310003854545559215555794122545478422125
:100320005554784020545579400C1E52721239555C
:100330005555593954545459395554545800004559
:100340007C410002457D420001457C407D12111236
:100350007DF0282528F07C545545002054547C54C9
:100360007C0A097F4932494949323A4444443A3285
:100370004A4848303A4141217A3A42402078009D2B
:10038000A0A07D3D4242423D3D4040403D3C24FFD7
:100390002424487E4943662B2FFC2F2BFF0929F686
:1003A00020C0887E090320545479410000447D41D7
:1003B0003048484A32384040227A007A0A0A727D30
:1003C0000D19317D2629292F28262929292630484B
:1003D0004D4020380808080808080808382F10C8B9
:1003E000ACBA2F102834FA00007B000008142A143D
:1003F0002222142A14085500550055AA55AA55AAB8
:10040000FF55FF55FF000000FF00101010FF001403
:100410001414FF001010FF00FF1010F010F014145F
:1004200014FC001414F700FF0000FF00FF1414F484
:1004300004FC141417101F10101F101F1414141F85
:1004400000101010F0000000001F101010101F10FE
:10045000101010F010000000FF10101010101010FD
:100460001010FF10000000FF140000FF00FF00004C
:100470001F10170000FC04F414141710171414F4C0
:1004800004F40000FF00F714141414141414F700FB
:10049000F7141414171410101F101F141414F4144C
:1004A0001010F010F000001F101F0000001F1400BB
:1004B0000000FC140000F010F01010FF10FF1414E6
:1004C00014FF141010101F00000000F010FFFFFFB9
:1004D000FFFFF0F0F0F0F0FFFFFF0000000000FF72
:1004E000FF0F0F0F0F0F3844443844FC4A4A4A3478
:1004F0007E02020606027E027E026355494163388F
:1005000044443C04407E201E2006027E020299A53F
:10051000E7A5991C2A492A1C4C7201724C304A4D9D
:100520004D303048784830BC625A463D3E494949D2
:10053000007E0101017E2A2A2A2A2A44445F44447B
:1005400040514A444040444A51400000FF0103E00A
:1005500080FF000008086B6B083612362436060F41
:10056000090F06000018180000001010003040FFAE
:100570000101001F01011E00191D1712003C3C3C27
:100580003C000000000011007F96290001007F96CA
:1005900028003A0155C0021010C10141C5040022D3
:1005A0008040360168B00100B102B011B40102B65A
:1005B0000302023BB701C63A0155F704A9512C8248
:1005C000B701C6E808408A00002919A533C0020D0A
:1005D0000DC1024300C20100C50400480048B40137
:1005E00000B60302023BE00F0F211C0B0E084998D6
:1005F00038091103141000E10F0F2F2B0C0E0647C2
:100600007637071104231E00B00100B30402000076
:1006100000B40100D003074218D103000710D20232
:100620000102D3020102D4020102C005123B000202
:1006300011C103101088C50103C60102C80C0032A5
:1006400036450616377577540C00CC0100F60301C9
:100650000100CF03008130ED0464031281E80385BB
:100660001078CB05392C003402F70120EA02000093
:10067000B00100B102001BB40100C00121C1011191
:10068000C5023F3CC701B5360148F2010026010111
:10069000E00F0F26240B0E0954A8460C17090F076C
:1006A00000E10F00191B0410072A47390306063022
:1006B000380F360100B80101C0010EB00100C104BD
:1006C00010100202C006003500000102C50104D26C
:1006D000020104CA0100EA0180B903FF83577F9633
:1006E0007F96B60125C0065050013C1E08B4070293
:1006F00040002A2A0D787F01F20B1616030808081D
:100700000810041616FD03110235B2050C0C003357
:1007100033B70135BB012BC00104C20201FFC30185
:1007200011C40120C6010FD002A4A1E00ED0000523
:100730000E150D3743470915121619E10ED00005A5
:100740000D0C062D44400E1C1816197F0A060007D2
:1007500000B1020012B40102B60400202700CA0151
:1007600001CB0103C001137F14C501CCC60100C732
:100770000104C80103CC0106CD011CF9021515F3D3
:10078000030A020AF603011000FA00FB00B001039D
:10079000E2013FC00122E20100B00100C0010AB045
:1007A0000100000000000000000000000000000048
:1007B0000100A4000100FFFF0A00600000270800FC
:1007C00008083000140231001537320004063300E7
:1007D000160E34001122350000153600078537004B
:1007E0000714380003143900200090001500100091
:1007F000100411003702290046002A0046000700B5
:1008000000001200890113000011FFFF9600120082
:10081000B9010100000102000002030030100900CC
:1008200001000A0000000D0000000E003000610011
:1008300001006A00000080000000810000008200CA
:100840005F009200000193000107FFFF50000700C6
:100850000001E5000080000001000100000102002D
:100860000007030030100400000008000202090025
:1008700000000A0000000C0000000D0000000F0046
:10088000000010000000110007001200000013001B
:100890000000FFFF32001000B01711000700FFFF3B
:1008A0000A0012003A01FFFF0A001300001A290093
:1008B0000C00FFFF0A003000000031000505320087
:1008C0000400350006003600070737000501380030
:1008D0000200390007073C0004073D0007086000DC
:1008E00000A7610001006A00000021000000200054
:1008F00000008000000081000000820000008300F2
:1009000000008400000085000000900010009200AC
:10091000000093000300950010019700000098006C
:10092000000007007301FFFF3200881311241FBE6F
:10093000CFEFD8E0DEBFCDBF22E0A8E9B1E001C033
:100940001D92AF38B207E1F711E0A0E0B1E0E2E6B6
:10095000F3E402C005900D92A839B107D9F714E06D
:10096000C6E9D4E004C02197FE010E947A1EC53971
:10097000D107C9F70E94ED130C94AF210C9400002D
:1009800008953FB7F8948091B1019091B201A09180
:10099000B301B091B40126B5A89B05C02F3F19F053
:1009A0000196A11DB11D3FBFBA2FA92F982F8827EF
:1009B000BC01CD01620F711D811D911D42E0660FCA
:1009C000771F881F991F4A95D1F708958F929F929C
:1009D000AF92BF92CF92DF92EF92FF926B017C01B8
:1009E0000E94C1044B015C01C114D104E104F10473
:1009F000B9F00E94C104681979098A099B09683E07
:100A000073408105910580F321E0C21AD108E10805
:100A1000F10888EE880E83E0981EA11CB11CE4CF7B
:100A2000FF90EF90DF90CF90BF90AF909F908F900E
:100A30000895AF92BF92CF92DF92EF92FF920F9301
:100A40001F93CF93DF936C017B018B01040F151F64
:100A5000EB015E01AE18BF08C017D10759F06991CC
:100A6000D601ED91FC910190F081E02DC601099530
:100A7000892B79F7C501DF91CF911F910F91FF90DD
:100A8000EF90DF90CF90BF90AF900895FC01538D11
:100A9000448D252F30E0842F90E0821B930B541758
:100AA00010F0CF96089501970895FC01918D828DE5
:100AB000981761F0A28DAE0FBF2FB11D5D968C917E
:100AC000928D9F5F9F73928F90E008958FEF9FEFBD
:100AD0000895FC01918D828D981731F0828DE80F79
:100AE000F11D858D90E008958FEF9FEF0895FC0133
:100AF000918D228D892F90E0805C9F4F821B910900
:100B00008F739927089586EB91E00E94770521E085
:100B1000892B09F420E0822F089580E090E0892B52
:100B200029F00E94830581110C9400000895FC01B6
:100B3000A48DA80FB92FB11DA35ABF4F2C91848D3E
:100B400090E001968F739927848FA689B7892C939B
:100B5000A089B1898C91837080648C93938D848DEE
:100B6000981306C00288F389E02D80818F7D8083F1
:100B70000895EF92FF920F931F93CF93DF93EC01B1
:100B800081E0888F9B8D8C8D98131AC0E889F98934
:100B9000808185FF15C09FB7F894EE89FF89608337
:100BA000E889F98980818370806480839FBF81E0B8
:100BB00090E0DF91CF911F910F91FF90EF900895FA
:100BC000F62E0B8D10E00F5F1F4F0F731127E02ED5
:100BD0008C8D8E110CC00FB607FCFACFE889F9890D
:100BE000808185FFF5CFCE010E949705F1CFEB8D77
:100BF000EC0FFD2FF11DE35AFF4FF0829FB7F894E1
:100C00000B8FEA89FB8980818062CFCFCF93DF93FE
:100C1000EC01888D8823B9F0AA89BB89E889F98914
:100C20008C9185FD03C0808186FD0DC00FB607FC49
:100C3000F7CF8C9185FFF2CF808185FFEDCFCE017C
:100C40000E949705E9CFDF91CF9108950F931F93ED
:100C5000CF93DF93EC018B01FE0194913196649167
:100C600022969F3799F470E090E080E00E94E604BD
:100C700060E0E62FF0E032960E1B1F0B10161106F7
:100C80005CF3DF91CF911F910F91089543984298A3
:100C900085B18C7F292F2370822B85B98BB183700E
:100CA0009C7F892B8BB94198419A30E020E0261730
:100CB000A8F4FE01E20FF31FE491429A85B18C7F04
:100CC0009E2F9370892B85B98BB18370EC7FE82BB5
:100CD000EBB94198419A2F5F3F4FE9CFC60FD11D25
:100CE000439AC7CF4398429825B12C7F392F337050
:100CF000232B25B92BB123709C7F922B9BB9419854
:100D0000419A95B19C7F282F2370922B95B99BB166
:100D100093708C7F892B8BB94198419A429AFA0142
:100D2000615078F0219195B19C7F822F8370982B30
:100D300095B98BB183702C7F822B8BB94198419AE6
:100D4000EFCF439A08954398429825B12C7F392FCD
:100D50003370232B25B92BB123709C7F922B9BB929
:100D60004198419A95B19C7F282F2370922B95B979
:100D70009BB193708C7F892B8BB94198419A429A91
:100D800085B18C7F972F9370892B85B98BB1837038
:100D90007C7F782B7BB94198419A85B18C7F962FC7
:100DA0009370892B85B98BB183706C7F682B6BB97D
:100DB0004198419A439A089581E08093B50184B1A6
:100DC000836084B98AB18C6F8AB9389A399A3A9A11
:100DD0003B9A3C9A439A409A419A449A62E370E063
:100DE00080E090E00E94E604449864E670E080E0D1
:100DF00090E00E94E604449A64E670E080E090E0AF
:100E00000E94E60470E060E080EB90E00C94A306A2
:100E10001F93CF93DF93C82F162F8091B5018111B7
:100E200002C00E94DC064398429885B18C7F85B948
:100E30008BB183708BB94198419A95B19C7F8C2F6F
:100E40008370982B95B98BB18370CC7F8C2B8BB929
:100E50004198419A429A84B18C7F84B98AB1837057
:100E60008AB961E070E080E090E00E94E60461E011
:100E700070E080E090E00E94E604409A409840983C
:100E80004098C3B1D9B1409A61E070E080E090E051
:100E90000E94E604409A40984098409883B199B1E6
:100EA000409A115020F7409A439A24B1236024B904
:100EB0002AB12C6F2AB9C370DC7FCD2B83709C7F45
:100EC000892B9C2FDF91CF911F9108950F931F9332
:100ED000CF93DF938C0160E00E940807EC0161E092
:100EE000C8010E9408078C01BE0190E080E0CB01A0
:100EF0007727662730E020E0602B712B822B932B25
:100F0000DF91CF911F910F910895FF920F931F933F
:100F1000CF93DF938C0160E00E940807EC0161E051
:100F2000C8010E940807F82E62E0C8010E94080765
:100F3000AE0170E060E0742F66275527442700E07B
:100F400030E020E0402B5F29622B732B292F30E00B
:100F5000C901B0E0A0E08A019B01082B192B2A2BC4
:100F60003B2BC901B801DF91CF911F910F91FF90E9
:100F700008950F931F93CF93DF93EC018B01FE0134
:100F800085919491FE0132962496659174918F3FDC
:100F9000980771F490E080E00E94E6040450110983
:100FA0001016110664F3DF91CF911F910F910895F0
:100FB0000E94A306F3CFFC01262F358D868D8295E6
:100FC0008170982F9627692F70E072A361A330FF7C
:100FD0000CC0821307C080E290E050E040E060E087
:100FE0000C94720681E290E0F8CF878D90A183394E
:100FF00027E7920741F058F4843521E0920791F0F9
:1010000080329445C1F4626081E094E012C086327F
:1010100023E99207C1F3893025EB9207A1F38532CA
:10102000924949F4660F771F660F771F636187E067
:1010300090E00C94A30681E690E0FBCF8F929F9204
:10104000AF92BF92CF92DF92EF92FF920F931F93D6
:10105000CF93DF9300D000D0CDB7DEB77C014B013A
:101060005A016901FC01878D90A18632954151F4A6
:10107000F701868980FF06C0C801841B950B81F5A6
:101080000F5F1F4FF701858D80FF31C085A59982C5
:101090008A82DB82CC82AE014F5F5F4F64E090E0DA
:1010A0000E947206F70181A9B982AA821B830C8370
:1010B000AE014F5F5F4F64E090E00E9472060F90B8
:1010C0000F900F900F90DF91CF911F910F91FF9094
:1010D000EF90DF90CF90BF90AF909F908F9008954A
:1010E0002617370779F6C80ED91E8A01CBCFB4016F
:1010F00087A190A50E94A306B501F70181A592A53D
:101100000E94A306C814D90419F40A151B05B9F2E4
:10111000F701858D85FF08C0868980FF1EC0102FCE
:101120000027A02AB12A8501B401F70185A596A55B
:101130000E94A306B501F70181A992A90E94A30606
:10114000B601F70187A590A90E94A306B801F7018F
:1011500083A994A90E94A306B2CFDC2CCC248C28AE
:101160009D286401E1CFAF92BF92CF92DF92EF92C0
:10117000FF920F931F93CF93DF93EC0137FF05C0CE
:10118000620F731F319521953109260F371F77FFA5
:1011900002C070E060E088859985281739070CF453
:1011A000C9016C01C61AD70A17FF05C0400F511FAD
:1011B000119501951109040F151F57FF02C050E04A
:1011C00040E02A853B85021713070CF4980159016A
:1011D000A41AB50A8901015011099C012150310955
:1011E000CE010E941E08439842983BA58CA525B1CC
:1011F0002C7F982F9370292B25B99BB193708C7FEE
:10120000982B9BB94198419A95B19C7F832F83700D
:10121000982B95B98BB183703C7F832B8BB9419808
:10122000419A429ACA14DB042CF09A2D8B2D560158
:10123000C92ED82E9F2D93702F2D2C7FF22E4E2D40
:1012400043708E2D8C7FE82E1C141D04E4F4950150
:1012500085B18C7F892B85B98BB183708F298BB930
:101260004198419A85B18C7F842B85B98BB183706D
:101270008E298BB94198419A2150310949F721E0D3
:10128000C21AD108E1CF439A8D8D80FF08C08F8D9F
:1012900098A18632954191F48E8980FF0FC00A850E
:1012A0001B8501501109288539852150310950E0ED
:1012B00040E070E060E0CE010E941E08DF91CF9117
:1012C0001F910F91FF90EF90DF90CF90BF90AF9064
:1012D0000895EF92FF920F931F93CF93DF93EC014A
:1012E00077FD1CC057FD1AC0E885F9856E177F078A
:1012F000ACF4EA85FB854E175F0784F479018A0117
:101300009B010E941E08B7018BA59CA5DF91CF9180
:101310001F910F91FF90EF900C94A306DF91CF9156
:101320001F910F91FF90EF900895EF92FF920F930E
:101330001F93CF93DF93CDB7DEB72A970FB6F894FC
:10134000DEBF0FBECDBF7C01862F8370F701868B79
:10135000962F917060FFE3C026813781F7013187B6
:101360002087992309F4DEC024813581F701338772
:101370002287823009F4DBC0833009F4DAC081307F
:1013800009F4D3C088E48A87F701258D368D30FFB4
:1013900003C08A8580588A8731FF04C08A8590E41B
:1013A00089278A8733FF04C08A8598E089278A873E
:1013B000F701878D90A120FF01C18431F8E69F07D6
:1013C00009F0B9C09A85892F88728A871F82892F70
:1013D00085958074282F2260892F90E095958795B8
:1013E00080729927822B88878BE38987AE01495FBA
:1013F0005F4F63E086EB90E00E9472062AE230E0E5
:10140000F70130A727A38BE290E092A781A74CE2D7
:1014100050E054A743A736A725A730AB27A792AB28
:1014200081AB94AB83ABAE01465F5F4F61E086E377
:1014300090E00E9472068A8590E0F70194A383A34E
:10144000F701868980FF1CC0858D968D92FD18C09E
:1014500087A190A521A532A530A727A392A781A790
:1014600085A596A521A932A936A725A792AB81AB60
:1014700087A590A923A934A930AB27A794AB83AB48
:10148000F70102851385015011092085318521500E
:10149000310950E040E070E060E0C7010E941E08A2
:1014A000F701878D90A120E08732F3E99F0709F4C7
:1014B00020E2F701358D30FF0AC1868197811982BC
:1014C0001A829B838C831D822E83AE014F5F5F4FF8
:1014D00066E083E390E00E94720619821A82AE01F0
:1014E0004F5F5F4F62E087E390E00E947206F70172
:1014F000858D80FF07C050E040E060E083E190E030
:101500000E9472062A960FB6F894DEBF0FBECDBFBA
:10151000DF91CF911F910F91FF90EF90089524815B
:1015200035811CCF2681378121CF88E22CCF88E9F5
:101530002ACF88EF28CF873223E9920789F41F82C8
:1015400081E388878A8585958595859585958870B9
:101550008987AE01495F5F4F63E080EC90E04CCF3C
:10156000833639E1930749F08138E4E99E0729F091
:101570008131F5E19F0709F041CF2A8527FF02C09D
:1015800021602A872A8526FF02C022602A878336A7
:1015900029E1920721F48A858F738A872FCF8138BA
:1015A00034E9930719F48A858F72F7CF8131954119
:1015B00009F024CF8A858F7E806CEFCF2A85622F39
:1015C000022E000C770B662770788339F7E79F07A8
:1015D00071F128F58032E4E59E0749F180E290E060
:1015E000F70190A787A381E290E092A781A782E20A
:1015F00090E094A783A780E590E096A785A781E572
:1016000090E090AB87A782E590E092AB81AB83E559
:1016100090E094AB83AB776280E690E037C086328F
:10162000F3E99F0721F0893035EB9307B9F640E0E5
:1016300052E0F70150A747A341E052E052A741A76B
:1016400042E052E054A743A740E152E056A745A725
:1016500041E152E050AB47A742E152E052AB41AB0F
:1016600043E152E054AB43AB8632F3E99F0719F0F4
:101670008032944529F427FD646080E091E302C044
:1016800080E092E6682B792B80E094E00E94A3062C
:101690006A85F4E06F9FB00111246627717081E0C4
:1016A00090E00E94A3068A85682F70E07595679583
:1016B000759567956870772783FD70616063F701A2
:1016C00074A363A383E090E00E94A306B9CE61A156
:1016D00072A18339F7E79F07C9F088F4803234E5B7
:1016E0009307A1F08338974709F0626081E690E0A4
:1016F0000E94A30670E060E08AE690E010C08632A7
:10170000F3E99F0719F08930954B79F7626081E022
:1017100094E00E94A30670E060E084E094E00E9400
:10172000A306F0CEEF92FF920F931F93DC01ED9191
:10173000FC9100A0F1A1E02D780101E010E00995F5
:101740001F910F91FF90EF900895EF92FF920F93EA
:101750001F93DC01ED91FC9100A0F1A1E02D780137
:10176000890121E030E009951F910F91FF90EF90E2
:1017700008950895FC016370668B848195812681AC
:101780003781613039F0633029F091878087338762
:1017900022870895318720879387828708952F9223
:1017A0003F924F925F926F927F928F929F92AF92F1
:1017B000BF92CF92DF92EF92FF920F931F93CF933E
:1017C000DF93CDB7DEB76A970FB6F894DEBF0FBED2
:1017D000CDBF9A8F898F7A8369834A01D22E188769
:1017E0000F833701BC2CDC0159962D913C915A97FF
:1017F0002115310509F015C118968D919C91199705
:10180000681779070CF0D7C11A968D919C914817EB
:1018100059070CF0D0C14C2C512CB6E0CB9E600D7A
:10182000711D11247C876B87161617060CF0C3C137
:10183000EA2DF0E0FA87E98793E0EE0FFF1F9A9513
:10184000E1F7F88BEF87CF01840F951F1816190663
:101850000CF0B1C1A98DBA8D58968C91811104C03C
:10186000BFEABD1508F4D394A98DBA8DED91FC9112
:1018700011970284F385E02DCD010995B5E0DB9E3B
:10188000C0011124E981FA81FC83EB83312C212CE6
:101890009C012A573F4F388F2F8B4A2D50E05E8B8B
:1018A0004D8BEF89F88DE20DF31D44919E828D8260
:1018B000D12CC12C69817A81620D731D7A8B698B61
:1018C000842F90E09C8B8B8BE98DFA8DA081B18168
:1018D00040FF82C0F1E0BF126FC0AF126DC01C9616
:1018E000ED91FC912F813885A4014C0D5D1D698916
:1018F0007A89898D9A8D0995EB89FC89F595E7950B
:101900004E2F5FEFC51AD50A6D817E818D899E8924
:10191000680F791F7E836D8398E0C916D10481F624
:10192000AFEF2A1A3A0AEB81FC81E40DF51DFC8326
:10193000EB83F5E02F16310409F0B3CF2F81388502
:1019400026153705B9F0A98DBA8DED91FC91B1E05E
:10195000BB1257C0AB1255C069817A816B5F7F4F54
:101960000088F189E02D830128E030E0A401898D11
:101970009A8D0995A98DBA8DED91FC9111970688E4
:10198000F789E02DCD016A960FB6F894DEBF0FBE41
:10199000CDBFDF91CF911F910F91FF90EF90DF901E
:1019A000CF90BF90AF909F908F907F906F905F90FF
:1019B0004F903F902F9009941E96ED91FC91EF80EF
:1019C000F88409851A8592014D815E816B817C8145
:1019D000898D9A8D099590CF2F81388526153705E9
:1019E00009F48ACF31E0B31207C0A31205C01C96D8
:1019F000ED91FC91930178CF1E96ED91FC917301CE
:101A0000E0CF6B857C85641975090684F785E02D28
:101A100073010F8518899201A401898D9A8D09950A
:101A2000A9CFF90134969491329745915491D91ADE
:101A3000B7E0DB9E400D511D1124F9012591349131
:101A40003C8B2B8BFA0125903490FA0132967490DE
:101A500031963491398B329664903196449041E0BE
:101A60004C1518F04A1508F07FC0662D062C000CA6
:101A7000770B7C836B83842D042C000C990B9E8345
:101A80008D83A98DBA8DED91FC9111970284F38518
:101A9000E02DCD010995512CD12CC12CEA2DF0E07F
:101AA000FA87E9872B2D30E03C872B87A401440D72
:101AB000511D47FC5A95588F4F8B69817A81660D6D
:101AC000711D67FC7A957E876D877989C71608F046
:101AD00051CF2C2D30E04D815E81420F531FA985DF
:101AE000BA854A9FC0014B9F900D5A9F900D1124BB
:101AF000FC01E80DF91DF88BEF87852D612C4F89CE
:101B0000588D420F531F5E8B4D8B671408F050C0E9
:101B100044244394480E877041F4C1010196EB8937
:101B2000FC89E20DF31DD4901C01D7FE19C0A98DCC
:101B3000BA8DED91FC91662D70E0B1E0BB1219C039
:101B4000AB1217C02D853E85620F731F0484F58587
:101B5000E02D2F8138854D895E89898D9A8D099573
:101B6000DD0C6394842DD1CF1E821D821C821B82CA
:101B700088CF4B815C81640F751FAB85BC856A9FE4
:101B8000C0016B9F900D7A9F900D112469817A811D
:101B9000680F791F0684F785E02DEF80F8840985AA
:101BA0001A859D014F855889898D9A8D0995D8CFC1
:101BB000570CC3948ACF6A960FB6F894DEBF0FBE57
:101BC000CDBFDF91CF911F910F91FF90EF90DF90EC
:101BD000CF90BF90AF909F908F907F906F905F90CD
:101BE0004F903F902F9008958F929F92AF92CF92F7
:101BF000EF92FF920F931F93CF93DF93EC01262F69
:101C0000898D9A8D009709F051C06A30D1F41D86F4
:101C10001C868D8948E0849F900111248E859F85C4
:101C2000820F931F9F878E8781E090E0DF91CF9195
:101C30001F910F91FF90EF90CF90AF909F908F905A
:101C400008956D3089F3CC88AD888F898823C1F0E1
:101C50008C859D8536E0C39E800D911D112448859D
:101C600059854817590764F44E855F851D861C8683
:101C700038E0A39EC0011124840F951F9F878E8793
:101C8000EA88FB88088919894E855F856C857D8582
:101C9000CE010E94CF0B2C898C859D8546E0249F28
:101CA000800D911D11249D878C87BECF6A3069F409
:101CB0001D861C86FC013896E4912D898E859F85B2
:101CC000E29F800D911D1124ADCF6D3009F4ACCF92
:101CD000FC0134963491631708F4A6CF3296E49150
:101CE000E61708F4A1CFFC01329685909490462F18
:101CF000431B342F47E0349F800C911C1124F401C6
:101D0000329634913196E4913323A9F1EE2399F17F
:101D1000CC88F4013596E491AD884F89442301F1D4
:101D20000E2E000CFF0BE30FF11DCE9EA001CF9EE7
:101D3000500D11246C857D85460F571F6885798568
:101D4000641775076CF44E855F851D861C86FC0143
:101D50003896E491AE9E400D511D11245F874E8749
:101D6000EA88FB88088919894E855F856C857D85A1
:101D7000CE010E94CF0BF4013496E4912C898C851E
:101D80009D85E29F800D911D11248DCF6F927F92D2
:101D90008F929F92AF92BF92CF92DF92EF92FF927B
:101DA0000F931F93CF93DF93EC016B015A0139011D
:101DB0004801E881F9810284F385E02D0995E881E5
:101DC000F9810288F389E02D87019301A501B6010D
:101DD000CE010995A501480D591D41505109E881D1
:101DE000F9810288F389E02D9301B601CE010995AE
:101DF000E881F9810088F189E02D9401A501B601FF
:101E0000CE010995C60CD71CB60161507109E88155
:101E1000F9810088F189E02D9401A501CE01099591
:101E2000E881F9810688F789E02DCE01DF91CF9115
:101E30001F910F91FF90EF90DF90CF90BF90AF90E8
:101E40009F908F907F906F9009946F927F928F9266
:101E50009F92AF92BF92CF92DF92EF92FF920F9339
:101E60001F93CF93DF935C01EB016A0149013801B5
:101E70008701DC01ED91FC916217730719F5641677
:101E800075062CF0962D872D3A01C92ED82E960175
:101E9000261937092F5F3F4F048CF58DE02DA301E4
:101EA000BE01C5010995DF91CF911F910F91FF9060
:101EB000EF90DF90CF90BF90AF909F908F907F90EA
:101EC0006F9008954615570591F42617370724F0AB
:101ED000892D4B01C22FD82F9E01281939092F5F58
:101EE0003F4F068CF78DE02DA601B401DACF0284B6
:101EF000F385E02D0995D501ED91FC910488F589D4
:101F0000E02D83019401A601BE01C5010995D5010B
:101F1000ED91FC910688F789E02DC501DF91CF9105
:101F20001F910F91FF90EF90DF90CF90BF90AF90F7
:101F30009F908F907F906F900994EF92FF920F93F4
:101F40001F93DC011A960D911C911B9718962D91E9
:101F50003C911997ED91FC9100A0F1A1E02D7B013E
:101F600050E040E070E060E009951F910F91FF9014
:101F7000EF9008954F925F926F927F928F929F920F
:101F8000AF92BF92CF92DF92EF92FF920F931F9387
:101F9000CF93DF936C012B015A0139014801DC0119
:101FA000ED91FC910284F385E02D0995E201640C2A
:101FB000751CD601ED91FC91C615D7055CF400881F
:101FC000F189E02D87019401A501BE01C6010995A3
:101FD0002196EFCF0688F789E02DC601DF91CF91DA
:101FE0001F910F91FF90EF90DF90CF90BF90AF9037
:101FF0009F908F907F906F905F904F9009948F92F9
:102000009F92AF92BF92CF92DF92EF92FF920F9387
:102010001F93CF93DF93EC015B014A016901E881D3
:10202000F9810284F385E02D099595012C0D3D1D64
:1020300021503109E881F9810488F589E02D780182
:102040008401A401B501CE010995E881F9810688D2
:10205000F789E02DCE01DF91CF911F910F91FF9075
:10206000EF90DF90CF90BF90AF909F908F900994AA
:102070008F929F92AF92BF92CF92DF92EF92FF9298
:102080000F931F93CF93DF93EC015B014A0169012A
:102090007801E881F9810284F385E02D0995C80C67
:1020A000D91C860101501109E881F9810488F5895C
:1020B000E02D9501A401B501CE010995E881F981D2
:1020C0000688F789E02DCE01DF91CF911F910F9106
:1020D000FF90EF90DF90CF90BF90AF909F908F9048
:1020E0000994EF92FF920F931F93DC01ED91FC9105
:1020F00000A0F1A1E02D09951F910F91FF90EF90A5
:1021000008950F931F93DC01ED91FC91068CF78DE0
:10211000E02D09951F910F9108950F931F93DC01F6
:10212000ED91FC91048CF58DE02D09951F910F9197
:1021300008952F923F924F925F926F927F928F926B
:102140009F92AF92BF92CF92DF92EF92FF920F9346
:102150001F93CF93DF93CDB7DEB728970FB6F894D0
:10216000DEBF0FBECDBF3C017E836D8358874F839A
:1021700069019A01220F331F2F5F3F4FAB018F81FF
:102180009885481B590B8601B30186E592E00E94B1
:102190008D1081E090E02C012F813885421A530A7E
:1021A000C9019195819591099C01220F331F3C83B0
:1021B0002B832F80388481E090E09A838983F12CEF
:1021C000E12C57FC0DC08F819885019798878F83EC
:1021D0002B813C812E5F3F4F3C832B83420E531E4D
:1021E0003FEFE31AF30A89819A8102969A838983E1
:1021F000480E591E2F8138852E153F050CF466C0F8
:102200004901880C991C3FEF831A930A86019401B7
:10221000AD80BE808F819885A81AB90AA501B30147
:102220006E0D7F1D86E592E00E948D109401A50140
:10223000B3016E197F0986E592E00E948D102F810F
:1022400038852215330519F1AA24A394B12CAE18B0
:10225000BF088D819E81A80EB91EB301620D731D4A
:10226000860189809A8092E0891A91089401A501DB
:1022700086E592E00E948D10B30162197309940102
:10228000A50186E592E00E948D102F8038842F8171
:102290003885E216F3060CF494CF28960FB6F8941E
:1022A000DEBF0FBECDBFDF91CF911F910F91FF9089
:1022B000EF90DF90CF90BF90AF909F908F907F90E6
:1022C0006F905F904F903F902F9008952F813885A9
:1022D0002215330509F0B8CFE0CFDC01ED91FC9178
:1022E0000084F185E02D09942F923F924F925F92E6
:1022F0006F927F928F929F92AF92BF92CF92DF9216
:10230000EF92FF920F931F93CF93DF9300D000D0F3
:1023100000D0CDB7DEB73C016A013E832D83FC823D
:10232000EB825801A41AB50AB7FE03C0B194A19478
:10233000B1088D809E80861A970A97FE03C09194FB
:10234000819491088A149B045CF0902F812F0D8159
:102350001E819D838E839C2D8D2D6B01692F782F7F
:102360000C151D055CF09D818E817E836D83692F28
:10237000782F902F812F8601C92ED82E1601201A72
:10238000310A2B012D813E81421A530A57FE03C0A8
:10239000519441945108710137FE03C03FEFE31A95
:1023A000F30AF594E7948D819E81861797075CF573
:1023B000A1E0B0E0BA83A983C016D1064CF1D301E5
:1023C000ED91FC910484F585E02D2B813C81A801E1
:1023D0006D817E818A149B041CF04D815E81B80161
:1023E000C3010995E418F508F7FE0AC02D813E8166
:1023F00089819A81280F391F3E832D83E20CF31CBB
:102400000F5F1F4FD9CF2FEF3FEF3A832983D4CFF0
:1024100026960FB6F894DEBF0FBECDBFDF91CF91E9
:102420001F910F91FF90EF90DF90CF90BF90AF90F2
:102430009F908F907F906F905F904F903F902F90E4
:102440000895089590E080E00895EF92FF920F9331
:102450001F93DC011A960D911C911B9718962D91D4
:102460003C911997ED91FC9100A0F1A1E02D7B0129
:1024700050E040E070E060E009951F910F91FF90FF
:10248000EF900895CF93DF93EC01888199810097B5
:1024900011F00E945420198218821D821C821B8216
:1024A0001A82DF91CF910895FB0101900020E9F796
:1024B0003197AF01461B570BDC01ED91FC91028077
:1024C000F381E02D09948F929F92AF92BF92EF9289
:1024D000FF920F931F93CF93DF93CDB7DEB7A197F2
:1024E0000FB6F894DEBF0FBECDBF7C01FA01CB0161
:1024F00019A2223008F42AE08E010F5D1F4F822EB0
:10250000912CB12CA12CBF01A50194010E94581E51
:10251000F901CA016A300CF5605DD8016E938D0136
:10252000232B242B252B79F790E080E0109721F0C6
:10253000BD01C7010E945412A1960FB6F894DEBFE8
:102540000FBECDBFDF91CF911F910F91FF90EF9004
:10255000BF90AF909F908F900895695CDECF0E94EE
:102560009A210F931F93CF93DF93EC018881998178
:10257000009759F02A813B812617370730F081E018
:10258000DF91CF911F910F9108958B016F5F7F4F66
:102590000E94DD20009759F0998388831B830A836A
:1025A0002C813D81232B59F7FC011082E8CF80E07C
:1025B000E7CF1F920F920FB60F9211242F933F93E4
:1025C0008F939F93AF93BF938091AD019091AE0194
:1025D000A091AF01B091B0013091AC0123E0230F85
:1025E0002D3758F50196A11DB11D2093AC018093A4
:1025F000AD019093AE01A093AF01B093B001809173
:10260000B1019091B201A091B301B091B4010196D2
:10261000A11DB11D8093B1019093B201A093B301AC
:10262000B093B401BF91AF919F918F913F912F9142
:102630000F900FBE0F901F90189526E8230F02965B
:10264000A11DB11DD2CF1F920F920FB60F92112470
:102650002F933F934F935F936F937F938F939F93AA
:10266000AF93BF93EF93FF9386EB91E00E949705A2
:10267000FF91EF91BF91AF919F918F917F916F915A
:102680005F914F913F912F910F900FBE0F901F9030
:1026900018951F920F920FB60F9211242F938F93BC
:1026A0009F93EF93FF93E091C601F091C701808162
:1026B000E091CC01F091CD0182FD1BC09081809111
:1026C000CF018F5F8F732091D001821741F0E0918D
:1026D000CF01F0E0EA54FE4F958F8093CF01FF9138
:1026E000EF919F918F912F910F900FBE0F901F90A0
:1026F00018958081F4CFFC01908190539A3008F0B6
:1027000090E0818180532AE0929F800D11240895EA
:10271000E6EBF1E01382128288EE93E0A0E0B0E0F5
:1027200084839583A683B78386E291E09183808337
:1027300085EC90E09587848784EC90E09787868786
:1027400080EC90E0918B808B81EC90E0938B828B7E
:1027500082EC90E0958B848B86EC90E0978B868B57
:10276000118E128E138E148EE6E5F2E01382128221
:1027700020EF30E03583248380E491E097838683E3
:102780003187208793878287168A15861486178655
:10279000168681E0858B848B2FEF3FEF338B228B66
:1027A000318B208B878B108E128E118E88E391E0F7
:1027B0009183808380E691E00E947B138093550291
:1027C00083E691E00E947B138093540286E691E0B9
:1027D0000E947B13809353020895CF93DF93CDB76C
:1027E000DEB7AB970FB6F894DEBF0FBECDBF7894BF
:1027F00084B5826084BD84B5816084BD85B5826006
:1028000085BD85B5816085BD80916E0081608093B6
:102810006E0010928100809181008260809381001F
:10282000809181008160809381008091800081602F
:10283000809380008091B10084608093B10080918A
:10284000B00081608093B00080917A0084608093B2
:102850007A0080917A00826080937A0080917A0079
:10286000816080937A0080917A00806880937A00FA
:102870001092C100E091C601F091C70182E080830F
:10288000E091C201F091C3011082E091C401F09186
:10289000C5018FEC80831092CE01E091CA01F091C6
:1028A000CB0186E08083E091C801F091C90180816D
:1028B00080618083E091C801F091C90180818860C6
:1028C0008083E091C801F091C90180818068808394
:1028D000E091C801F091C90180818F7D80838FB71D
:1028E000F8940091AD011091AE012091AF013091AB
:1028F000B0018FBF4FB7F8946091AD017091AE01F8
:102900008091AF019091B0014FBF1BA21AA21DA2EE
:102910001CA21FA21EA2601B710B820B930B2AE04C
:10292000AE014F5F5F4F6A010E94F41CF6010190F7
:102930000020E9F731978F010C191D09B801CE016C
:1029400082960E94B1128111DBC0CE0182960E9454
:1029500042121A8219821C821B821E821D826CE026
:1029600070E0C6010E94B1128111D2C0C6010E945E
:1029700042120EA11FA1AAA0BBA0A114B10409F488
:10298000D2C001151105B1F08D819E81080F191F6C
:10299000B801C6010E94B112882309F4C4C029817C
:1029A0003A818D819E81B501820F931F0E94A821DB
:1029B0001E830D830D811E81055F1F4FB801C60167
:1029C0000E94B1128111B3C0C6010E9442124D8112
:1029D0005E8169817A8186EB91E00E94190562E847
:1029E00071E086EB91E00E94541289819A810097F0
:1029F00011F00E9454208AA19BA1009711F00E941F
:102A0000542060E090E080E00E9408078C0188304C
:102A1000944551F1003284E5180731F1093819481D
:102A200009F45CC160E087E690E00E94080707E4D3
:102A300013E887349744C1F08FEE90E00E94850739
:102A40008B016732734981F081EA90E00E9466074A
:102A500003E619E1613021E6720731F06F3F760736
:102A600009F072C006E215E165E871E086EB91E0DD
:102A70000E945412A80170E060E020E186EB91E032
:102A80000E94631262E871E086EB91E00E945412AA
:102A9000033D100711F401E814E90E94DC061092CE
:102AA000720210927102109376020093750207353C
:102AB00053E8150709F4D7C608F067C1023096E15C
:102AC000190709F412C708F02FC10131B5E11B073E
:102AD00009F4E6C108F00EC10939110509F4DEC692
:102AE000053045E1140709F4F1C680E091E10130B9
:102AF000110509F4EDC610925B0210925A02F2C65B
:102B00001FA30EA3B6018AA19BA10E94A82121CFD9
:102B10008CE090E09E838D8369E671E089819A81E3
:102B20000E94A82126CFC6010E94421243CF2981CC
:102B30003A818D819E8166E771E0820F931F0E942A
:102B4000A8211E830D8343CF61155FEF750719F42C
:102B500000E215E189CF01EA15E06115704F09F433
:102B600083CF8FEB90E00E9485078B01073593E8B8
:102B7000190709F479CF0138A4E91A0709F474CFC9
:102B80000131B5E11B0709F46FCF003225E11207CF
:102B9000F9F2063245E1140709F464CF013855E132
:102BA000150709F461CF0115144109F49AC084EDA9
:102BB00090E00E9466078B01003193E5190709F444
:102BC00053CF87ED90E00E9466078B016133704818
:102BD00009F44ACF8EEF90E00E946607072F182F66
:102BE000292F33270335B0E21B0709F43DCF84E0DA
:102BF00090E00E9466078B01833E29F4672B31F534
:102C000000E013EE31CF811121C061157048F1F45D
:102C100080911F0190912001A091210189839A83C5
:102C2000AB83A60163E089EB90E00E94720660E04E
:102C300080ED90E00E94080709E910E0893909F465
:102C400013CF8039B9F400E910E90ECF063245E11F
:102C5000140709F407CF003F59E8150709F444C0E9
:102C6000023585E8180709F442C001319CEA1907CA
:102C700009F4FACE83ED90E00E946607072F182F23
:102C8000292F33270336A1E91A0709F4EDCE83ED86
:102C900090E00E9466078B016932B2E37B0709F47A
:102CA000E3CE872F7359723008F4DECE883909F4E9
:102CB000DBCE873709F4D8CE863109F4D5CE033D73
:102CC000110509F4D1CE033D100709F4CDCE60E023
:102CD00090E080E00E9408078C01C6CE09E812E16E
:102CE000C3CE04E118E6C0CE05E317E7BDCE09E880
:102CF00017E7BACE063255E1150709F478C5013851
:102D000085E1180709F40FC60032154109F0F3CE2A
:102D100083E194E09093740280937302B6E0EB2E0B
:102D2000F12C09E917E0D3C00830A4E51A0709F42B
:102D3000CDC588F4093222E3120709F464C50031D5
:102D400043E5140709F46BC50335104209F0D3CEEF
:102D500087E194E190C0063987E7180709F4FEC5BA
:102D6000013390E8190709F472C50938174709F0CB
:102D7000C2CE83E194E0909374028093730271E475
:102D8000E72EF12C0AE017E0A2C00234B3E91B07DA
:102D9000E0F5003423E9120708F0B9C5003243E931
:102DA000140709F493C558F40039100709F473C5E2
:102DB0000230134909F09FCE83E094E05CC00932F1
:102DC000A3E91A0709F4A0C50833B3E91B0709F4FE
:102DD00098C50732134909F08ECE83E094E09093B2
:102DE00074028093730280E991E090935D02809376
:102DF0005C0280EF90E090935B0280935A023EE188
:102E0000E32EF12C0BEB16E062C0093844E91407FD
:102E100030F5073854E9150708F0B8C5013884E9DA
:102E2000180709F498C50638144909F064CE83E000
:102E300094E0909374028093730280EE91E09093FB
:102E40005D0280935C0280E491E090935B0280934A
:102E50005A021BE3E12EF12C0DEC15E038C00530D1
:102E6000A5EB1A0709F4AAC580F483E194E10131C6
:102E70001C4A09F040CE909374028093730293E051
:102E8000E92EF12C02EB16E022C0053045EC1407C8
:102E900009F494C583E19EE00115134E61F32BCE36
:102EA00083E090E0909374028093730280EE91E04F
:102EB00090935D0280935C0280E491E090935B02CA
:102EC00080935A0213E0E12EF12C0FE917E02091D4
:102ED0007402822F82958F7090E081709927909371
:102EE0007802809377020115110581F069E070E0A6
:102EF0008CE895E00E942606B701C8010E942606CC
:102F000066E070E086E895E00E94260660E086E5CF
:102F100092E00E94950960E086E592E00E94DB075E
:102F200070E060E086E592E00E9425128FEF9FEF4F
:102F300090936702809366028BEE9AE59093690204
:102F40008093680220EE37EB46E750E068E770E0D8
:102F500088E790E00E94991020EE3FEF44E750E0B0
:102F600068E770E088E790E00E9499102FE130E078
:102F700042E750E068E770E088E790E00E9499102F
:102F80002FE93CEF40E750E068E770E088E790E029
:102F90000E94991030E020E04EE650E068E770E0D3
:102FA00088E790E00E949910F6EA2F2E33243A9495
:102FB000B101032C000C880B990B0E94281D25E3FE
:102FC0003AEF4EE85CE30E94631D4B015C010E94F6
:102FD000ED1E6B017C01C0929C01D0929D01E0929C
:102FE0009E01F0929F01C501B4010E94671F4B0131
:102FF0005C0180920D0190920E01A0920F01B0929F
:10300000100120E030E044EE52E4C701B6010E9416
:10301000631D20E030E040EF52E40E94811E0E94D8
:10302000F91E2B0170939B0160939A0120E030E020
:1030300044EE52E4C501B4010E94631D20E030E07B
:1030400040EF52E40E94811E0E94F91E68A779A7F2
:103050008AA79BA788A599A5909399018093980129
:1030600020E030E048EC52E4C501B4010E94631D49
:1030700020E030E040EF52E40E94811E0E94F91EE1
:103080004B0120E030E048EC52E4C701B6010E9459
:10309000631D20E030E040EF52E40E94811E0E9458
:1030A000F91EE0EEEE2EE7E0FE2E84019B0148A51E
:1030B00059A5B20186E592E00E94250F9EE1290EF6
:1030C000311CAEE02A16A1E03A0609F071CF10E0FB
:1030D00000E0B8016A557109072E000C880B990BA6
:1030E0000E94281D25E33AEF4EE85CE30E94631D31
:1030F0004B015C010E94ED1E6B017C01C0929C01A2
:10310000D0929D01E0929E01F0929F01C501B40111
:103110000E94671F2B013C0140920D0150920E014D
:1031200060920F017092100120E030E04CEC52E40C
:10313000C701B6010E94631D20E030E040EF52E479
:103140000E94811E0E94F91E4B0170939B016093A7
:103150009A0120E030E04CEC52E4C301B2010E943D
:10316000631D20E030E040EF52E40E94811E0E9487
:10317000F91E6B0170939901609398012FEF3FEF57
:10318000AB01B40186E592E00E94690901151105C1
:1031900019F0043B110541F42FEF3FEF42E050E0FE
:1031A000B601C4010E9499100A35110521F00E30B4
:1031B000B1E01B0771F460919801709199012FEFB4
:1031C0003FEF42E050E080919A0190919B010E9474
:1031D00099100A5F1F4F083621E0120709F079CFD6
:1031E00081E090E0A0E0B0E088A799A7AAA7BBA7DC
:1031F00004EC1FEF212C68EF362EB801012E000CD5
:10320000880B990B0E94281D25E33AEF4EE85CE3FA
:103210000E94631D4B015C010E94ED1E2B013C01CD
:1032200060915E0270915F0277FF02C06F5F7F4F17
:1032300075956795685F7F4F072E000C880B990B7B
:103240000E94281D6B017C0120E030E044EB52E439
:10325000C301B2010E94631D9B01AC01C701B6010D
:103260000E94811E0E94F21E6B01C501B4010E94E2
:10327000671F2B013C01609160027091610277FF32
:1032800002C06F5F7F4F7595679561527109072E78
:10329000000C880B990B0E94281D4B015C0120E05B
:1032A00030E044EB52E4C301B2010E94631D9B0174
:1032B000AC01C501B4010E94811E0E94F21E309231
:1032C0006702209266021092690210926802A1E0E1
:1032D000A0936A02A0936B02BAE0CB1AD108D092F5
:1032E0006302C09262026A50710970936502609332
:1032F00064022AE048A559A56AA57BA586E592E067
:103300000E946312025E1F4F88A599A5AAA5BBA5BE
:103310000196A11DB11D88A799A7AAA7BBA70C322A
:1033200091E0190709F069CF2FEF3FEF43E050E03C
:1033300069E770E088E790E00E9499103092670298
:1033400020926602109269021092680283E08093D4
:103350006A0280936B0284E190E090936302809311
:10336000620284E091E090936502809364026DE8CC
:1033700071E086E592E00E94541262E871E086E511
:1033800092E00E9454122FB7F8948091AD01909171
:10339000AE01A091AF01B091B0012FBF88519C4FF9
:1033A000AF4FBF4F8093A8019093A901A093AA01AA
:1033B000B093AB0130E0632E30E0732E8FB7F894FA
:1033C0004091AD015091AE016091AF017091B0019B
:1033D0008FBF8091A8019091A901A091AA01B091FD
:1033E000AB0184179507A607B70708F0F4C1885109
:1033F0009C4FAF4FBF4F8093A8019093A901A0931A
:10340000AA01B093AB01809153028F5F8093530266
:103410008C3361F4909154028091550210925302C2
:103420009F5F9C3308F0D5C29093540210915302D1
:10343000A6E01A9FB0011124072E000C880B990BEF
:103440000E94281D4B015C0160915402B6E06B9F05
:10345000B0011124072E000C880B990B0E94281D27
:103460006B017C012AE838E848E85CE3C501B40157
:103470000E94631D9B01AC01C701B6010E94811E21
:103480001B012C01609155022EE1629FB0011124B5
:10349000072E000C880B990B0E94281D6B017C01E4
:1034A00026EA3AEA4AEA5DE3C201B1010E94631DDD
:1034B0009B01AC01C701B6010E94811E20E030E0F3
:1034C00044EB52E40E94801E25E33AEF4EE85CE3B1
:1034D0000E94631D6B017C010E94ED1E609315012B
:1034E000709316018093170190931801C701B601DC
:1034F0000E94671F6093A4017093A5018093A601A9
:103500009093A70120E030E044EB52E4C201B10106
:103510000E94801E25E33AEF4EE85CE30E94631DA3
:103520001B012C010E94ED1E60931101709312018A
:103530008093130190931401C201B1010E94671F8F
:103540006093A0017093A1018093A2019093A301C5
:1035500020E030E044EB52E4C501B4010E94801E3B
:1035600025E33AEF4EE85CE30E94631D4B015C01EA
:103570000E94ED1E60939C0170939D0180939E01BB
:1035800090939F01C501B4010E94671F60930D01D4
:1035900070930E0180930F0190931001112329F075
:1035A00080910C01882309F48AC010920C0140918B
:1035B0000A0150910B016091080170910901F12CF1
:1035C000E12C09E710E028E730E086E592E00E9470
:1035D000250F20E030E048E752E46091150170913A
:1035E000160180911701909118010E94631D20E03F
:1035F00030E042EF52E40E94811E0E94F91E709357
:1036000009016093080120E030E048E752E460914E
:10361000A4017091A5018091A6019091A7010E943B
:10362000631D20E030E042EF52E40E94811E0E94C0
:10363000F91E70930B0160930A01409106015091AD
:103640000701609104017091050128E730E086E5EB
:1036500092E00E94250F20E030E048EA52E46091B9
:1036600011017091120180911301909114010E9437
:10367000631D20E030E040EF52E40E94811E0E9472
:10368000F91E709305016093040120E030E048EAE0
:1036900052E46091A0017091A1018091A2019091EA
:1036A000A3010E94631D20E030E042EF52E40E943B
:1036B000811E0E94F91E70930701609306014091DC
:1036C0000201509103016091000170910101F12C00
:1036D000E12C09E710E028E730E086E592E00E945F
:1036E000250F20E030E044EB52E460919C017091A2
:1036F0009D0180919E0190919F010E94631D20E099
:1037000030E042EF52E40E94811E0E94F91E4B01FC
:10371000709301016093000120E030E044EB52E43B
:1037200060910D0170910E0180910F019091100137
:103730000E94631D20E030E042EF52E40E94811EAF
:103740000E94F91E7093030160930201E12C88EF3F
:10375000F82E28E730E0AB01B40186E592E00E9444
:10376000250F40910A0150910B0160910801709161
:103770000901EE24EA94FE2C28E730E086E592E089
:103780000E94250F409106015091070160910401AC
:103790007091050128E730E086E592E00E94250F50
:1037A000409102015091030160910001709101016B
:1037B000E12C28EFF22E28E730E086E592E00E9427
:1037C000250F20E038EF43E050E069E770E088E73C
:1037D00090E00E9499106114710409F4EFCD0E94E9
:1037E0008305882309F4EACD0E940000E7CD83E138
:1037F00094E09093740280937302ACE0EA2EF12C73
:103800000DE817E064CB83E096E090937402809318
:103810007302F0E4EF2EF12C0DE417E058CB83E1B6
:103820009EE0909374028093730280EE91E09093F7
:103830005D0280935C0280E491E090935B02809350
:103840005A02E2E0EE2EF12C0BE417E040CB83E1CC
:1038500094E1909374028093730262E1E62EF12C5E
:1038600008EF16E034CB83E094E1909374028093E8
:10387000730280EE91E090935D0280935C0280E49D
:1038800091E090935B0280935A0252E0E52EF12C76
:1038900006EF16E01CCB83E194E1E7CF83E194E1EE
:1038A000909374028093730280EE91E090935D0296
:1038B00080935C0280E491E090935B0280935A02D3
:1038C0004DE1E42EF12C09ED16E001CB84E090E10E
:1038D000909374028093730268ED70E082E598E043
:1038E0000E94B90710E000E0F2CA83E094E09093F0
:1038F00074028093730226E0E22EF12C05EB16E0B1
:10390000E6CA83E194E0B7CA83E096E1B4CA83E1F2
:1039100094E0909374028093730285E6E82EF12C74
:103920000DE416E0D4CA83E194E09093740280938E
:10393000730280EE91E090935D0280935C0280E4DC
:1039400091E090935B0280935A0205E4E02EF12C03
:1039500008E016E0BCCA87E094E0E7CF83E094E09B
:10396000909374028093730280EE91E090935D02D5
:1039700080935C0280E491E090935B0280935A0212
:10398000BDE0EB2EF12C00EC15E0A1CA83E194E040
:10399000909374028093730280EE91E090935D02A5
:1039A00080935C0280E491E090935B0280935A02E2
:1039B000ABE2EA2EF12C05E915E089CA88E090E136
:1039C000909374028093730260EB70E082EA97E058
:1039D00087CF109254028F5F883118F4809355027C
:1039E00025CD1092550222CDBB27FA01A62F6217D2
:1039F000710581059105330B30FB66F0AA27660F30
:103A0000771F881F991FAA1FA21710F0A21B63958A
:103A10003850A9F7A05DAA3308F0A95DA19336F745
:103A2000B111B1931082CA010C94161DDC01FC0186
:103A3000672F71917723E1F7329704C07C916D93E2
:103A400070836291AE17BF07C8F30895E89409C068
:103A500097FB3EF490958095709561957F4F8F4FC1
:103A60009F4F9923A9F0F92F96E9BB279395F695D7
:103A7000879577956795B795F111F8CFFAF4BB0F55
:103A800011F460FF1BC06F5F7F4F8F4F9F4F16C0B9
:103A9000882311F096E911C0772321F09EE8872F43
:103AA000762F05C0662371F096E8862F70E060E0FF
:103AB0002AF09A95660F771F881FDAF7880F969578
:103AC000879597F908950E94761D0C94E71D0E9432
:103AD000D91D38F00E94E01D20F0952311F00C94C0
:103AE000D01D0C94D61D11240C941B1E0E94F81D91
:103AF00070F3959FC1F3950F50E0551F629FF00141
:103B0000729FBB27F00DB11D639FAA27F00DB11D59
:103B1000AA1F649F6627B00DA11D661F829F2227E2
:103B2000B00DA11D621F739FB00DA11D621F839F69
:103B3000A00D611D221F749F3327A00D611D231F3F
:103B4000849F600D211D822F762F6A2F11249F578D
:103B500050409AF0F1F088234AF0EE0FFF1FBB1F90
:103B6000661F771F881F91505040A9F79E3F51054F
:103B700080F00C94D01D0C941B1E5F3FE4F3983E24
:103B8000D4F3869577956795B795F795E7959F5FF9
:103B9000C1F7FE2B880F911D9695879597F908958B
:103BA00097F99F6780E870E060E008959FEF80ECF0
:103BB000089500240A941616170618060906089593
:103BC00000240A9412161306140605060895092EF9
:103BD0000394000C11F4882352F0BB0F40F4BF2B68
:103BE00011F460FF04C06F5F7F4F8F4F9F4F0895A8
:103BF00057FD9058440F551F59F05F3F71F047959E
:103C0000880F97FB991F61F09F3F79F08795089582
:103C1000121613061406551FF2CF4695F1DF08C0A1
:103C2000161617061806991FF1CF869571056105BE
:103C300008940895E894BB2766277727CB0197F966
:103C400008952F923F924F925F926F927F928F9240
:103C50009F92AF92BF92CF92DF92EF92FF920F931B
:103C60001F93CF93DF93CDB7DEB7CA1BDB0B0FB625
:103C7000F894DEBF0FBECDBF09942A8839884888E2
:103C80005F846E847D848C849B84AA84B984C88478
:103C9000DF80EE80FD800C811B81AA81B981CE0F6F
:103CA000D11D0FB6F894DEBF0FBECDBFED01089554
:103CB000A1E21A2EAA1BBB1BFD010DC0AA1FBB1F30
:103CC000EE1FFF1FA217B307E407F50720F0A21BA2
:103CD000B30BE40BF50B661F771F881F991F1A940F
:103CE00069F760957095809590959B01AC01BD0139
:103CF000CF010895EE0FFF1F0590F491E02D099478
:103D00005058BB27AA270E94981E0C94E71D0E94BA
:103D1000D91D38F00E94E01D20F039F49F3F19F4BE
:103D200026F40C94D61D0EF4E095E7FB0C94D01D00
:103D3000E92F0E94F81D58F3BA176207730784072A
:103D4000950720F079F4A6F50C941A1E0EF4E09570
:103D50000B2EBA2FA02D0B01B90190010C01CA0145
:103D6000A0011124FF27591B99F0593F50F4503EF0
:103D700068F11A16F040A22F232F342F4427585FE2
:103D8000F3CF469537952795A795F0405395C9F7FA
:103D90007EF41F16BA0B620B730B840BBAF09150B2
:103DA000A1F0FF0FBB1F661F771F881FC2F70EC051
:103DB000BA0F621F731F841F48F487957795679524
:103DC000B795F7959E3F08F0B0CF9395880F08F010
:103DD0009927EE0F9795879508950E942A1FE395DE
:103DE0000C94531F0E94F91E6894B1110C941B1E71
:103DF00008950E94001E88F09F5798F0B92F9927C8
:103E0000B751B0F0E1F0660F771F881F991F1AF0C5
:103E1000BA95C9F714C0B13091F00E941A1EB1E0F2
:103E200008950C941A1E672F782F8827B85F39F0F1
:103E3000B93FCCF3869577956795B395D9F73EF45E
:103E400090958095709561957F4F8F4F9F4F089506
:103E50000C94D61D0E94001ED8F3E894E0E0BB2726
:103E60009F57F0F02AED3FE049EC06C0EE0FBB0F84
:103E7000661F771F881F28F0B23A6207730784070E
:103E800028F0B25A620B730B840BE3959A9572F784
:103E9000803830F49A95BB0F661F771F881FD2F7C2
:103EA00090480C94711FEF93E0FF07C0A2EA2AED3F
:103EB0003FE049EC5FEB0E94981E0E94E71D0F90C7
:103EC000039401FC9058E8E6F0E00C947D1F9F936A
:103ED0000E942A1F0F9007FCEE5F0C94531F9F3F18
:103EE00031F0915020F4879577956795B795880FB5
:103EF000911D9695879597F908959F938F937F933A
:103F00006F93FF93EF939B01AC010E94631DEF91B0
:103F1000FF910E94911F2F913F914F915F910C94BF
:103F2000631DDF93CF931F930F93FF92EF92DF9266
:103F30007B018C01689406C0DA2EEF010E94761D89
:103F4000FE01E894A5912591359145915591A6F3EF
:103F5000EF010E94981EFE019701A801DA9469F70B
:103F6000DF90EF90FF900F911F91CF91DF91089517
:103F70000F931F93CF93DF938230910510F482E06B
:103F800090E0E0918D02F0918E0230E020E0B0E010
:103F9000A0E0309799F42115310509F44AC0281B97
:103FA000390B24303105D8F58A819B816115710563
:103FB00089F1FB0193838283FE0111C0408151810D
:103FC0000281138148175907E0F04817590799F4FF
:103FD000109761F012960C93129713961C933296D9
:103FE000CF01DF91CF911F910F91089500938D0222
:103FF00010938E02F4CF2115310551F0421753076B
:1040000038F0A901DB019A01BD01DF01F801C1CF40
:10401000EF01F9CF90938E0280938D02CDCFFE01F8
:10402000E20FF31F81939193225031093983288342
:10403000D7CF20918B0230918C02232B41F4209119
:104040001B0130911C0130938C0220938B02209134
:10405000190130911A012115310541F42DB73EB7F0
:1040600040911D0150911E01241B350BE0918B02E4
:10407000F0918C02E217F307A0F42E1B3F0B2817D8
:10408000390778F0AC014E5F5F4F2417350748F0D1
:104090004E0F5F1F50938C0240938B02819391933C
:1040A0009FCFF0E0E0E09CCFCF93DF930097E9F063
:1040B000FC01329713821282A0918D02B0918E0280
:1040C000ED0130E020E01097A1F420813181820FD2
:1040D000931F20918B0230918C022817390709F029
:1040E00061C0F0938C02E0938B02DF91CF91089531
:1040F000EA01CE17DF07E8F54A815B819E01411591
:104100005105B1F7E901FB83EA8349915991C40F45
:10411000D51FEC17FD0761F4808191810296840F11
:10412000951FE90199838883828193819B838A8388
:10413000F0E0E0E012968D919C9113970097B9F50D
:104140002D913C911197CD010296820F931F2091E2
:104150008B0230918C022817390739F6309751F5C8
:1041600010928E0210928D02B0938C02A0938B025B
:10417000BCCFD383C28340815181840F951FC81760
:10418000D90761F44E5F5F4F88819981480F591FAD
:10419000518340838A819B819383828321153105DA
:1041A00009F0B0CFF0938E02E0938D029ECFFD0117
:1041B000DC01C0CF13821282D7CFB0E0A0E0E3EEE3
:1041C000F0E20C94231E8C01009751F4CB010E9465
:1041D000B81F8C01C801CDB7DEB7E0E10C943F1EDB
:1041E000FC01E60FF71F9C0122503109E217F3078B
:1041F00008F49DC0D901CD91DC911197C617D7075E
:1042000098F0C530D10530F3CE0104978617970793
:1042100008F3C61BD70B2297C193D1936D937C9360
:10422000CF010E945420D6CF5B01AC1ABD0A4C01CD
:104230008C0E9D1EA0918D02B0918E02512C412CAE
:10424000F12CE12C109731F580918B0290918C022A
:104250008815990509F05CC04616570608F058C045
:104260008091190190911A01009741F48DB79EB782
:1042700040911D0150911E01841B950BE817F90711
:1042800008F055C0F0938C02E0938B02F901718322
:104290006083A0CF8D919C91119712966C9012978C
:1042A00013967C901397A815B90559F56C0142E057
:1042B000C40ED11CCA14DB0420F1AC014A195B09FD
:1042C000DA011296159780F06282738251834083DF
:1042D000D9016D937C93E114F10471F0D701139629
:1042E000FC93EE93129776CF22968C0F9D1FF901C7
:1042F00091838083F301EFCFF0938E02E0938D02E0
:1043000069CF4816590608F42C017D01D3019ACFD4
:10431000CB010E94B81F7C01009749F0AE01B801A3
:104320000E949F21C8010E945420870153CF10E0B2
:1043300000E050CF81E090E0F8940C94AF21FB01B5
:10434000DC0102C001900D9241505040D8F7089511
:10435000FB01DC0101900D920020E1F70895F89433
:02436000FFCF8D
:1043620078007800780078007800780001000080FA
:104372003F0000803F000080BF00008F028000FFEE
:10438200835700000000B9051905460506067705A2
:104392005505690500000000F40D190522122112CD
:1043A2006909C0046D1171108D1081107411C0045F
:1043B2009509DB07A50B920BB3082512250FC60E34
:1043C20031373A35383A34380053657269616C20B6
:1043D200746F6F6B20006D7320746F207374617241
:1043E20074000D0A004944203D2030780054696D64
:0843F2006520666C696573002B
:00000001FF
